:020000041000EA
:1000000000B5324B212058609868022188439860DF
:10001000D860186158612E4B002199600221596106
:100020000121F02299502B49196001219960352056
:1000300000F044F80222904214D00621196600F024
:1000400034F8196E01211966002018661A6600F04E
:100050002CF8196E196E196E052000F02FF8012189
:100060000842F9D1002199601B49196000215960AB
:100070001A491B48016001219960EB211966A021F2
:10008000196600F012F800219960164914480160C1
:100090000121996001BC002800D000471248134993
:1000A000086003C880F30888084703B5996A0420EC
:1000B0000142FBD001200142F8D103BD02B5186610
:1000C0001866FFF7F2FF186E186E02BD00000240BE
:1000D000000000180000070000035F00212200005C
:1000E000F4000018222000A00001001008ED00E03C
:1000F00000000000000000000000000074B24E7A12
:1001000000200420F7010010C3010010C5010010F9
:10011000C1010010C1010010C1010010C101001097
:10012000C1010010C1010010C1010010C701001081
:10013000C1010010C1010010C9010010CB01001065
:10014000CD010010CD010010CD010010CD01001037
:10015000CD010010CD010010CD010010CD01001027
:10016000CD010010CD010010CD010010CD01001017
:10017000CD010010CD010010CD010010CD01001007
:10018000CD010010CD010010CD010010CD010010F7
:10019000CD010010CD010010CD010010CD010010E7
:1001A000CD010010CD010010CD010010CD010010D7
:1001B000CD010010CD010010CD010010CD010010C7
:1001C00000BE00BE00BE00BE00BE00BE00F04BF888
:1001D000103800BEF2EB88717C6A0510A46A051025
:1001E0003402001090A31AE700202149086006C8D5
:1001F00081F3088810471F48006800282FD10DA4FC
:100200000ECC002902D000F012F8F9E71A491B4A77
:10021000002000E001C19142FCD1194988471949E9
:1002200088471949884700BEFDE701C901C29A42C3
:10023000FBD37047A46A0510C0000020D41D002025
:10024000B88705100000042000000420B8870510BE
:1002500000100420001004200000000070470B482C
:1002600005F068FA0047EFF30580C0B27047000060
:1002700008ED00E0000000D0D81D0020E439002087
:100280008D3C00104D080010A13D00105756000095
:1002900006005250ABB360533CA804100600525005
:1002A000861C03024CA80410060052505422A29D42
:1002B0005CA8041005005250DE65F468B88705108C
:1002C000F8B5C04610B5064C2378002B07D1054B76
:1002D000002B02D0044800E000BF0123237010BDB2
:1002E000D81E00200000000060790410044B10B5F7
:1002F000002B03D00349044800E000BF10BDC046F6
:1003000000000000DC1E002060790410012070470E
:1003100001207047002070470020704710B5036827
:100320005B68984710BD000000238360024BC360E8
:10033000024B83607047C0463104001089030010EF
:1003400000238360024BC360024B83607047C0464A
:1003500041040010B9030010002A0AD0012A0CD071
:10036000022A08D007D8002A09D0012A03D1016047
:1003700001E0044B0360002070470160FBE7014B84
:100380000360F8E7507B0410002A0AD0012A0CD041
:10039000022A08D007D8002A09D0012A03D1016017
:1003A00001E0044B0360002070470160FBE7014B54
:1003B0000360F8E7B87C0410002A0AD0012A0CD0A8
:1003C000022A08D007D8002A09D0012A03D10160E7
:1003D00001E0044B0360002070470160FBE7014B24
:1003E0000360F8E7B07C0410024B0360024B03602B
:1003F0007047C046947C0410147C041010B50300B0
:100400000C30DB681B68984710BD0000024B03608E
:10041000024B03607047C046787C0410147C0410C3
:1004200010B503000C30DB681B68984710BD000056
:1004300010B5024800F0F1FF10BDC046283700207B
:1004400010B5024800F0AAFF10BDC04628370020B2
:1004500010B50B000C300400064A914205D0064945
:10046000180007F0A1F8002801D0200010BD0024DA
:10047000FBE7C046A87C0410787A041010B50B0086
:100480000C300400064A914205D00649180007F0D6
:100490008BF8002801D0200010BD0024FBE7C046E7
:1004A000A87C0410787A041010B50400044B036093
:1004B000044B03602C2106F0EBFA200010BDC0466F
:1004C000787C0410147C041010B50400044B036005
:1004D000044B03603C2106F0DBFA200010BDC0464F
:1004E000947C0410147C041000B585B003AB019318
:1004F0000290054B0360054B0360002802D02C21BD
:1005000006F0C6FA05B000BD787C0410147C041017
:1005100000B585B003AB01930290054B0360054B1A
:100520000360002802D03C2106F0B2FA05B000BDFD
:10053000947C0410147C041010B50400074B036075
:100540000300074A04C3406822000C32904203D0E3
:100550009968013106F09CFA200010BD607C0410FF
:10056000307C041010B50400094B03600300094AF5
:1005700004C3406822000C32904203D099680131D4
:1005800006F086FA2021200006F082FA200010BD35
:10059000607C0410307C0410F0B58BB00C001600A9
:1005A0001D0006AB04930B680F000837BB421FD039
:1005B00004938B6806936368059327600023636048
:1005C0002372336829780122039202910192049ADE
:1005D000009200220021094801F038FC049806AB83
:1005E000984203D0069B591C06F052FA0BB0F0BD9E
:1005F0001022390006A806F035FADCE76037002043
:1006000010B504000B4B036020308368002B02D030
:100610000322010098472300074A04C360682200B0
:100620000C32904203D09968013106F031FA200073
:1006300010BDC046487C0410307C041010B5040086
:100640000D4B036020308368002B02D00322010091
:1006500098472300094A04C3606822000C32904284
:1006600003D09968013106F013FA3021200006F01A
:100670000FFA200010BDC046487C0410307C0410E6
:1006800010B504008368002B02D0032201009847B4
:10069000200010BD10B504004368013B4360002BEF
:1006A0000BD103689B689847A368013BA360002BAC
:1006B00003D12368DB682000984710BD10B50421E2
:1006C000062002F0B5F80421072002F0B1F802215B
:1006D000062002F0F7F80221072002F0F3F80A489A
:1006E0009C235B00C364094A13680C219943084B9F
:1006F000196014680221A1431960064981641168D8
:1007000001228A431A6010BD000005403C000540EC
:100710003C100540DC005C0010B50B490B4806F0AE
:1007200081FD00220121022002F09AF8002201211D
:10073000032002F095F80321022002F079F803214A
:10074000032002F075F810BD801A0600DC120020AC
:1007500010B588B00400012252420B4B06930B4B9C
:100760000593049203230393013B0293013B0193FE
:100770000023009301330121200001F05BF80028E1
:10078000E9DB08B010BDC046DC120020801A06006C
:1007900010B5D02424068023DB02A362012112209D
:1007A00002F078F880239B02A3620121112002F05D
:1007B00071F880235B02A3620121102002F06AF825
:1007C000094C230001220C21122002F0C1F8230061
:1007D00001220C21112002F0BBF823000122042188
:1007E000102002F0B5F810BD2515001070B506F008
:1007F000F1FA002510E019F00FFC20000DF064FA6A
:1008000023689B690A212000984701000E4823F0C5
:1008100053FE23F0CDFD0135312D0DDC0A490A6868
:100820000C3A13685B18DC6F002CE4D0237F002B9C
:10083000E3D02723E15CE9E7FFF76EFFFFF73EFF18
:10084000FFF7A6FF70BDC0464C33002030B59FB007
:10085000FFF7CCFF2948FFF77BFF16AC00212000F3
:10086000FFF762FD1AAD00212800FFF769FD019531
:10087000009410231122122104A800F043FF280045
:10088000FFF7FEFE2000FFF7FBFE0024072C0DD82B
:1008900001230393002202920193194B009323003A
:1008A0000021164801F0D2FA0134EFE7154802F0B2
:1008B0003FFE01230393002202920193124B009307
:1008C000022300210D4801F0C1FA104802F030FE69
:1008D0000024072C0DD801230393002202920193D8
:1008E000074B009323000021044801F0AFFA0134C4
:1008F000EFE7074800F0DDFCFEE7C0466037002068
:1009000060790410EE02000074790410DC05000028
:100910002837002070B504000D00002383608B6829
:10092000002B05D002229847EB68E360AB68A36018
:10093000200070BDF8B507000568466800E008357E
:10094000AE4215D06C68002CF9D06368013B63603F
:10095000002BF4D123689B6820009847A368013BD3
:10096000A360002BEBD12368DB6820009847E6E703
:100970003868BB68191A002801D006F089F83800D9
:10098000F8BD000000238360024BC360024B83600C
:100990007047C046990500105903001070B582B029
:1009A00005000E1E0DD0941B01940F2C0ED8286844
:1009B000012C14D0002C14D02200310006F052F883
:1009C0000FE09142EFD00B4819F036FB002201A94D
:1009D000280024F00FFA2860019BAB60E7E733782A
:1009E0000370019A6A602B689B1800221A7002B08B
:1009F00070BDC0468479041070B582B005000E1E2B
:100A00000DD0941B01940F2C0ED82868012C14D003
:100A1000002C14D02200310006F024F80FE091429F
:100A2000EFD00B4819F008FB002201A9280024F0A0
:100A3000E1F92860019BAB60E7E733780370019A26
:100A40006A602B689B1800221A7002B070BDC04605
:100A50008479041070B504000D002C2006F008F80D
:100A600025606060200070BD70B504000D003C2062
:100A700005F0FEFF25606060200070BDF0B58FB00E
:100A8000050017000023036001A902A8FFF7ECFF8F
:100A9000039C234B236001236360A360214B2360ED
:100AA00026000C360AAB0893002F37D038003BF0F5
:100AB0008FFB3A180023390008A8FFF76FFF0023C7
:100AC0000693194BE360301D33000C337360099AB1
:100AD000089B9C46624400236146FFF78DFF01237B
:100AE0003377124BE3603000203004A9FFF712FF88
:100AF000069B002B03D0032204A9080098470898FE
:100B00000AAB984203D00A9B591C05F0C1FF002391
:100B100003936C602E6028000FB0F0BD0122C9E77E
:100B2000147C0410947C0410307C0410487C041065
:100B3000F0B58FB0050017000023036001A902A8DB
:100B4000FFF792FF039C234B236001236360A360A4
:100B5000214B236026000C360AAB0893002F37D0B8
:100B600038003BF035FB3A180023390008A8FFF79E
:100B700015FF00230693194BE360301D33000C333F
:100B80007360099A089B9C46624400236146FFF704
:100B900033FF01233377124BE3603000203004A988
:100BA000FFF7B8FE069B002B03D0032204A9080020
:100BB000984708980AAB984203D00A9B591C05F045
:100BC00067FF002303936C602E6028000FB0F0BD18
:100BD0000122C9E7147C0410947C0410307C0410BA
:100BE000487C0410F0B58FB00500170000230360A7
:100BF00001A902A8FFF738FF039C234B23600123C0
:100C00006360A360214B236026000C360AAB089377
:100C1000002F37D038003BF0DBFA3A1800233900B8
:100C200008A8FFF7BBFE00230693194BE360301DB5
:100C300033000C337360099A089B9C46624400237E
:100C40006146FFF7D9FE01233377124BE360300092
:100C5000203004A9FFF75EFE069B002B03D0032281
:100C600004A90800984708980AAB984203D00A9B49
:100C7000591C05F00DFF002303936C602E602800C3
:100C80000FB0F0BD0122C9E7147C0410947C04105D
:100C9000307C0410487C0410F0B5CE46474680B541
:100CA000CBB004000E0001280AD0002C03D1BD4BAC
:100CB0009E4200D15BE14BB0C0BCB946B046F0BD2E
:100CC000B84B9942F1D1B84806F092FEB74A136882
:100CD00001331360012B00D1D7E00023229307A931
:100CE00009A8FFF7B7FE0A9DB14B2B6001276F6083
:100CF000AF60B04B2B600C239846A84446AB994696
:100D000044930023AC4AAD4944A8FFF747FEAC4BDF
:100D1000EB60280010302B0018332B61459A449B60
:100D20009C46624400236146FFF766FE43461F77F8
:100D3000A44BEB604498484503D0469BD91905F075
:100D4000A7FE00230A932395434622930993002587
:100D5000239B059323950A9322959B4A42A924A895
:100D6000FFF78CFE249B0B930C95259B05932595F3
:100D70000C932495954A41A926A8FFF77FFE269B50
:100D80000D930E95279B059327950E932695904AD4
:100D900040A928A8FFF7CCFE289B0F931095299B0C
:100DA00005932995109328958A4A3FA92AA8FFF709
:100DB00019FF2A9B119312952B9B05932B95129348
:100DC0002A95854A3EA92CA8FFF70CFF2C9B13936C
:100DD00014952D9B05932D9514932C957F4A3DA931
:100DE0002EA8FFF74BFE2E9B159316952F9B059370
:100DF0002F9516932E957A4A3CA930A8FFF798FEB6
:100E0000309B17931895319B059331951893309526
:100E1000744A3BA932A8FFF78BFE329B19931A95AF
:100E2000339B059333951A9332956F4A3AA934A8A8
:100E3000FFF7D8FE349B1B931C95359B0593359586
:100E40001C93349520AB09AA20920A22219207AA6A
:100E5000110081CB81C11D951E951F950D000A23A0
:100E6000DB00CF189846D810604A934213D8002868
:100E700016D080225205904210D2C00005F0F8FD35
:100E80001D904346C3181F930EE0594B00221A6071
:100E90005A609A6021E7574819F0E6F819F0ACF863
:100EA0000020EDE708350830AF4209D02B68036019
:100EB0006B684360002BF5D05A6801325A60F1E745
:100EC0001E9036AD00212800FFF75CFD01235B4238
:100ED0000293023301930095073310221DA946485F
:100EE00000F070F92800FFF7CBFB1DA8FFF722FDEB
:100EF0001DAD09AB9D4206D0083D68680028F8D0BA
:100F0000FFF7C8FBF5E73598002801D0FFF7C2FBD3
:100F10003398002801D0FFF7BDFB3198002801D09D
:100F2000FFF7B8FB2F98002801D0FFF7B3FB2D98EF
:100F3000002801D0FFF7AEFB2B98002801D0FFF767
:100F4000A9FB2998002801D0FFF7A4FB27980028C7
:100F500001D0FFF79FFB2598002801D0FFF79AFBEF
:100F60002398002800D1A0E6FFF794FB9DE6224CD1
:100F700020002030FFF784FB2000FFF7DBFC0B4A4A
:100F80001368013B1360002B03D0074806F040FDB7
:100F900091E6174B18689968091A0028F5D005F0F2
:100FA00077FDF2E7FFFF00001C360020F41E002052
:100FB000147C0410787C0410B4790410B079041007
:100FC000307C0410607C0410B8790410BC790410E3
:100FD000C0790410C8790410D0790410D8790410AD
:100FE000DC790410E4790410EC790410F8FFFF7F39
:100FF000F42F0020F47904102837002010B502499E
:101000000120FFF749FE10BDFFFF000070B50D0085
:10101000002601E020000830040085420BD0006863
:10102000002804D00023054A054906F0BFF900282E
:10103000F0D00136EEE7300070BDC046007B0410F2
:10104000D07A041070B504000D00012805D0002CE2
:1010500002D1074B9D4207D070BD054B9942F6D196
:10106000044806F0C5FCF2E7024806F0D1FCF3E7BD
:10107000FFFF000020360020F0B583B006000C0012
:10108000150000222021200024F0A8F9431C07D1DC
:10109000002D20D16268F368934213D803B0F0BDED
:1010A000431C0AD00028F3D06268904200D20200AC
:1010B0000021200023F03AFFEAE700236360226862
:1010C0001370E5E79B1A202200920022616820003D
:1010D00023F090FFE2E7012252422021200024F079
:1010E0008FF9431C10D1012D2CD0022DD6D162686E
:1010F000F3689342D2D99B1A202200920022002149
:10110000200023F077FFC9E7411C6368181A994251
:101110000CD8431C0FD00028E5D063685A1A9042BF
:1011200000D20200200023F001FFDCE70A001A4988
:101130001A4818F0B1FF616023689C46614400239F
:101140000B70D0E76368F0689842A7D9C01A05F021
:1011500083FB05F0A9FB0022114B04F0B0FD060053
:101160000F0004F00DFF04F05FFE03001F35009533
:1011700000220021200023F03DFF3000390004F060
:101180004DFF04F051FE030000950022616820002D
:1011900023F030FF82E7C046E07C0410F47C0410AA
:1011A0000000E03F70B504000D00002383608B68F1
:1011B000002B05D002229847EB68E360AB68A36080
:1011C000200070BDF0B5D6464F464646C0B5060075
:1011D000884692469946099F4A680B68D41AE410DB
:1011E0000023036043608360002C12D080235B05E2
:1011F0009C420CD2E00005F03BFC30607060E400E3
:101200000019B060356843461C68596809E018F059
:10121000F3FE0020F1E762680132626008331C00CF
:10122000083523008C4206D022682A6064686C600E
:10123000002CF0D1F2E775605346F3604B46336102
:101240004346186859680022FFF7E0FE7061B761F5
:101250000A9B002B00DB1800F06130002030089959
:10126000FFF7A0FF736933634B4673633468756897
:1012700006E02368191D3A003000FFF7FDFE083430
:10128000A542F6D13000E0BCBA46B146A846F0BD52
:1012900010B582B001926A46D3708368002B06D0E5
:1012A000C4686B46033301AAA04702B010BD18F012
:1012B0005DFFF0B5D6464F464646C0B58CB004003B
:1012C000026804E000232A6813772A00083227689E
:1012D0006369DB00FB1815009A421DD013681A7F62
:1012E000002AF2D002AE009659689A688A18002344
:1012F0006846FFF781FB2368EA1AD21020002030ED
:1013000000236946FFF7C4FF0098B042DAD0029B81
:10131000591C05F0BDFBD5E7236BDB00B9469944AA
:10132000636BDF0023689C4667444B4607E0089BDD
:10133000591C05F0ADFB002333772B0008331D004B
:10134000BB4225D01E68337F002BF6D04B46EB1AEC
:10135000DB1062699046984408AB9A46069372681F
:10136000B3689C4662440023716806A8FFF744FBFB
:10137000E36942469B1A5A425341DBB220002030B7
:10138000424606A9FFF784FF06985045CFD1D2E721
:101390000CB0E0BCBA46B146A846F0BD10B5C26973
:1013A0000369013B9A421AD2C169026843689B1AD9
:1013B000DB10994213D2C369016B8C466344013B35
:1013C000DB00D35801221A77C369591CC161016B34
:1013D0008C466344DB000168CB581A7706E0426B09
:1013E000436801685B1ADB109A4203D3FFF761FF81
:1013F000012010BD036B0133036301324263426974
:1014000004E0D300CB580121197701320168436809
:101410005B1ADB109342F4D8E8E710B5C269436960
:101420009A4217D9C369013BC361026B9446634476
:10143000DB000268D35801221A77C369016B8C461E
:101440006344013BDB000168CB581A77FFF731FF9B
:10145000002010BD026B9342F8D2013A0263436B45
:10146000013B4363426904E0D300CB580121197763
:101470000132016843685B1ADB109342F4D8E5E758
:1014800010B502490120FFF7DDFD10BDFFFF000090
:1014900070B504000D00012805D0002C02D1144BBA
:1014A0009D4212D070BD124B9942F6D1114806F000
:1014B0009FFA114A136801331360012BEDD10F4BD2
:1014C00000221A605A609A60E7E70B4A1368013BF2
:1014D0001360002B03D0074806F09AFAE2E7074BA7
:1014E00018689968091A0028F5D005F0D1FAF2E7D2
:1014F000FFFF000024360020F41E0020F42F0020FF
:1015000010B584680C220549054823F045F8607F32
:101510000022042101F00CFA10BDC0462C7D0410FD
:101520004C33002070B505000A4B1B6800E0231DFA
:10153000084A52681C0093420AD018680379002BAD
:10154000F5D04379AB42F2D103681B689847EEE7C8
:1015500070BDC046F42F002010B58368002B02D068
:10156000C368984710BD18F001FE000010B5D021E7
:1015700009064B689B0C012213405B004968490C2B
:101580000A4013432424015D0F220A4092000949B6
:101590008A18D25C025530231340102B02D0202B26
:1015A00004D010BD3830FFF7D7FFFAE72830FFF737
:1015B000D3FFF6E7807D041010B58068FFF7D6FFF3
:1015C00010BD0000F0B5DE4657464E464546E0B534
:1015D00083B0050088461600012300934368026823
:1015E0009C1AA410314A0121A24245D001948C4298
:1015F00045D301AA1268A4182A689B1A9B109C4222
:101600003FD380239B059C423DD22B6899466B6853
:101610009A4643464A469B1A9B46002C37D0802365
:101620009B059C4231D2A00005F022FA07005B46E0
:101630003268FA5043464A469E1A002E29DCBE19EB
:101640000436534642469B1A9A46002B27DC5644E2
:10165000AB684A46991A002A02D0484605F018FAA3
:101660002F606E60A4003C19AC6003B0F0BCBB46B8
:10167000B246A946A046F0BD0D4818F0F5FC6A46F2
:10168000B8E70A4CC1E7094CBFE718F0B5FC0027E2
:10169000CDE732004946380039F0BEF9CFE71A00ED
:1016A0004146300039F0B8F9D1E7C046FFFFFF1FCF
:1016B0003C7D041010B5040043688268934207D053
:1016C0000A681A604368043343606068043810BDD8
:1016D0000A001900FFF776FFF7E7000010B582B0A7
:1016E0000400064B0360012303714171019001A9BD
:1016F0000348FFF7DFFF200002B010BD7C7D04101F
:10170000F42F0020F8B5040017001E00FFF7E6FFD5
:10171000114D08352560A46020000C303900FFF71A
:10172000DDFFE5606461200018303100FFF7D6FF6F
:101730000A4B0833A361246224230022E2542000D0
:1017400028300699FFF7E6F8200038300799FFF7B0
:10175000E1F82000F8BDC046F07D0410FC7D0410C7
:1017600010B502490120FFF793FE10BDFFFF0000F6
:1017700070B506000D0014004023C35C012B07D098
:101780002223C35C002B3BD0202A39DD013C32E010
:101790004133C35CFF2B0ED0097801229A40002907
:1017A0001AD0D0231B065A614523F25C443B934078
:1017B000D02212069361691C621E174B186846F00E
:1017C0008FF833790C2B1DD84523F25C443B9340B2
:1017D000D0221206536115E0D0231B069A61E3E77D
:1017E00031783000203020232A0000F0DFFF1F3C3A
:1017F0001F3540232B701E2CF2DC002C00D001344E
:10180000002C00D170BD31783000203023002A0038
:1018100000F0CCFFF6E7C04624120020002305E0CC
:101820000278D243027001300133DBB28B42F7D32E
:1018300070470000F0B5D6464F464646C0B58CB05E
:1018400004000D0016001F001A9BC3620023836072
:1018500001718770149AC2704370202216998154C6
:101860000132179981540132159981541E328354E3
:101870002033984680441999404600F0C1FF189BD8
:10188000013330D1731C012B01D9FF2E51D13C21E2
:10189000404600F098FF3C21404600F094FF0028AD
:1018A0003DD03C2323700F266E44002333702178F3
:1018B0000133009333000022404600F067FF337885
:1018C0000F221A403270072A43D00F2A41D0082A2B
:1018D00048D0032A58D0062A59D0072A5AD00123C3
:1018E0005B42984642E0FF22189B1A400123934036
:1018F0009946D0231B069A464A465A625A613220BC
:1019000001F016FE53464A469A61322001F010FE5D
:1019100053464A465A610A2001F00AFEB2E73D21C9
:10192000404600F050FF002800D199E03D2323708D
:10193000B9E7F6B226703100404600F044FF3100AE
:10194000404600F040FF0028ADD101235B4298469D
:1019500074E02379012BBAD17B425F41FFB20423AB
:10196000984603E004232371023B984623783D2BDD
:1019700013D0022D18D0062D39D0012D3AD0072DC5
:101980000FD03949162611E000239846EEE70023D0
:101990009846EBE700239846E8E73C3B9C46E0444A
:1019A000E7E732491A2601E031491826320004A837
:1019B00005F058F8320004A92000FFF7D9FE149B67
:1019C000002B1AD1002F23D180236361403BA361F8
:1019D000062D2FD0022D38D0012D39D0052D3AD02B
:1019E000072D2BD148236361203BA36126E02049CA
:1019F0001826DBE71F491626D8E700236A4613742A
:101A0000A7335374022204A92000FFF7B1FED9E7DF
:101A100004AE00233370A033737002223100200023
:101A2000FFF7A6FEC0237370022231002000FFF7EB
:101A30009FFEC9E720336361503BA36140460CB071
:101A4000E0BCBA46B146A846F0BD2023A361F5E745
:101A50008023A361F2E740236361203BA361EDE7AC
:101A600001235B429846E9E70080041018800410C7
:101A7000E87F041034800410F0B5DE4657464E4629
:101A80004546E0B583B08346924699460CAB1B7839
:101A9000984630E0BE3BD25C403B49468B40002A32
:101AA0000ED1D02212065361012543469D40D02617
:101AB000360675610020002101F00EFDB56125E0BC
:101AC000D02212069361EFE7D0221206936129E03B
:101AD000012443469C40D026360674610020002134
:101AE00001F0FAFCB4610135072DF1DD01235B4201
:101AF0009C46E24401995346002B34D04B1C019381
:101B00000C7842235A46D35CFF2BC3D0631EDBB252
:101B1000FD2B09D901234A469340E207D4D5D022B0
:101B2000120653610025DFE7002610E0D0221206DE
:101B30009361012543469D40D0273F067D616400A7
:101B4000E4B20020002101F0C7FCBD610136072E80
:101B5000CCDC62B2012349468B40002AE6DAD0226F
:101B600012065361E5E703B0F0BCBB46B246A94696
:101B7000A046F0BDF0B5B7B00400039117001D00FA
:101B800043697F2B00DC8023A269D117072008401E
:101B90008018C6105E43A068002803D0E369DA19F4
:101BA000B24224DD23790B2B1FD8002D1DD04023FA
:101BB000E35C012B2FD14433E25C443B9340D022C1
:101BC000120693614323E35CFF2B1DD04422A25CE9
:101BD00000923A0003992000FFF74EFF4523E25C94
:101BE000443B9340D0221206536137B0F0BDC01879
:101BF0003A00039904F036FFE369FB18E361B3424E
:101C0000D0DB9B1BE361CDE70B4B18683A000399CF
:101C100045F066FEE2E705AD40232B703A000399DC
:101C20000D2002AB9C46604404F01CFF7A1C290086
:101C30002000FFF79DFDD8E72412002010B5074BC8
:101C40001B78002B00D110BD044C2278D2B20B00BF
:101C50000349FFF78FFF00232370F4E7DC390020EE
:101C6000B01F002070B50E0014000B4A1278121934
:101C7000C02A0CDC084D2B780848C018220031001F
:101C800004F0F0FE2A781219D2B22A7070BD190041
:101C9000FFF7D4FFEEE7C046DC390020B01F00207C
:101CA0004223C35CFF2B08D001229A401300002975
:101CB00006D1D0221206536101E0BE3BC1547047E9
:101CC000D02212069361FAE710B586B004000F2304
:101CD0006B4419704023C35C002B09D16A4613750D
:101CE000CBB25375022205A9FFF742FD06B010BD25
:101CF0000121FFF7D5FF4523E25C443B9340D0220E
:101D0000120693614323E35CFF2B14D04422A25CB0
:101D1000009201220F2169442000FFF7ADFE452308
:101D2000E25C443B9340D022120653610021200024
:101D3000FFF7B6FFDAE7F03B6B441B7812216944EA
:101D40000B70044B1868012313226A4445F0D8FD38
:101D5000E5E7C04624120020F0B5C64600B582B0C3
:101D600004000E0090461F0045691900FFF766FF4A
:101D70007F2D00DC802543465D43AD19E561237965
:101D80000B2B41D8002F3FD00B2B0FD0052B1CD095
:101D9000042B22D0062B3BD0072B1FD11C36A37857
:101DA000002B1BD103339C46E04417E040214346FF
:101DB0000B43D9B22000FFF787FF8021494231430E
:101DC000C9B22000FFF780FF1EE02036A378002B69
:101DD00004D104339C46E04400E002364023E35C37
:101DE000002B1ED101A90B705022524243461A43C8
:101DF0004A700F2333408B70361110231E43CE7070
:101E000004222000FFF7B4FC02B080BCB846F0BD4D
:101E1000A378002B01D02036E0E702239C46E04463
:101E2000DCE75021494243461943C9B22000FFF77D
:101E30004BFF311110231943C9B22000FFF744FFB3
:101E40000F2131402000FFF73FFFDDE7F0B5DE4610
:101E500057464E464546E0B58FB004000D00511C74
:101E600003D0591C01D0C2600361E16863699942E3
:101E700001DB00F06EFC2269A069C71707233B4015
:101E80001B18DB109A4201DB00F066FC1B9B200054
:101E9000FFF762FF199B012B18D0199B042B7CD0F4
:101EA000199B032B00D133E1199B022B00D1E7E1F1
:101EB000199B002B01D000F064FC0621280003F0E0
:101EC00065FC199F0E00189B9946F1E307272F40E8
:101ED00000262A003D00189B9846170013E00821B1
:101EE00004A8FFF79BFC31E00023E36023695A1C40
:101EF00022611B9B00212000FFF72EFF002500E040
:101F00000025083F0136E368626993423FDA4346A1
:101F10009A5D002A3BD0A169C817072303405B18CC
:101F2000DB102169994232DA072FEADC203AD1002E
:101F3000891A002304AA1370D84A8918072204AB0F
:101F4000581C04F08FFD1A9B002BC8D108235B1B83
:101F50009A46E368524699186269914201DDD31AA4
:101F60009A465346DAB2290004AB9C4661441B9B57
:101F70002000FFF777FEE3685344E3606269073AA5
:101F80009342BDDB6378002BAED10025B9E71B99E6
:101F90002000FFF753FE0020D4E30B332B4098467C
:101FA00000239946AA461A9B9B461B9D1CE01021C4
:101FB00004A8FFF733FC48E0102104A8FFF72EFC2B
:101FC0005CE0102104A8FFF729FC6DE0102104A8B3
:101FD000FFF724FC7FE00023984610235B429C46D9
:101FE000E24411339C46E144E1686069814200DBD0
:101FF000B5E32269A669F71707233B409B19DB105D
:10200000033B9A4200DBACE3189B4E469E5D002EDC
:1020100000D1A8E353460F2BDFDC203EF6B2B60119
:102020009F4BF61810274346FF1ACB19984200DA47
:10203000471A2B002000FFF78FFE1022310004A862
:1020400004F010FD5B46002BB1D104AB9C46E0448C
:102050002B003A0041462000FFF78CFD23695A1CF3
:102060002B00E1682000FFF777FE310010311022CD
:1020700004A804F0F7FC5B46002B9DD12B003A002E
:1020800041462000FFF776FD23699A1C2B00E1688A
:102090002000FFF761FE31002031102204A804F077
:1020A000E1FC5B46002B8CD12B003A00414620001E
:1020B000FFF760FD2369DA1C2B00E1682000FFF7C1
:1020C0004BFE31003031102204A804F0CBFC5B46FB
:1020D000002B00D07AE72B003A0041462000FFF7A2
:1020E00049FDE3689C466744E76063690F3B9F4294
:1020F00000DA70E76378002B07D00023E3602369E0
:10210000043323610023984667E70023984664E779
:102110000F272F40B94600239A46AB467DE00821A1
:1021200004A8FFF77BFBA3E09200D2B20133032B9C
:102130000CDC08001841C00700D51643181D0C0020
:1021400004412000C007EFD51543EDE7009C404651
:1021500004AB1E5563465E701D745D740137072F16
:102160000DDC3C1D6400A44604AB9846C444D95D14
:10217000032200250026002300948046D7E70400B0
:1021800010234A469B1A9846C168CA1843699A4266
:1021900001DD5B1A98461B9B22692000FFF7DCFDDE
:1021A0004946083104AB9C4661441B9B42462000D3
:1021B000FFF7E0FC23695A1C1B9BE1682000FFF736
:1021C000CBFD4946183104AB9C4661441B9B4246FB
:1021D0002000FFF7CFFCE3684344E36062690F3AF5
:1021E000934212DB6378002B02D1002399460EE064
:1021F0000023E36023699A1C22611B9B00212000BD
:10220000FFF7AAFD0023994601E0002399465B46AB
:10221000103B9B46534601339A46E36862699342FA
:1022200000DBA2E2A269D11707230B409B18DB1049
:10223000013B22699A4200DB99E2189B52469B5C63
:10224000002B00D195E25A460F2AE0DC203BDBB29E
:10225000D900C91A114BC918002304AA1370072208
:1022600004AB581C04F0FEFB1A9B002B00D056E771
:102270002022002106A804F0EFFB002720006EE7D3
:102280000C21280003F082FA029100239B4600955E
:10229000C5E1062104A8FFF7C1FAEBE14C80041068
:1022A000EC8204109200D2B20133032B0CDC080044
:1022B0001841C00700D51643181D0C00044120002A
:1022C000C007EFD51543EDE74C4604AB1E5543461A
:1022D0005E701D735D730137052F0CDCFC1C640000
:1022E000A04604AB9946C844D95D032200250026C8
:1022F0000023A146D9E700273B00E04601E0019E0C
:102300003300042B00DD3DE104AAD55C5E1C975D23
:1023100003335C00944664440221012300200196AB
:1023200021E0420001320126B146964072B2667841
:10233000164376B2B4466670A678324356B2039618
:10234000A670461C7600B2464E465246964072B281
:10235000664616436670039E1643A6705B00DBB2AA
:102360004900C9B201300628C9DC2A001A401D42C2
:1023700005D01F4203D10D4201D10F420BD1002ADB
:1023800000D09CE01F4200D199E00D4200D196E0C0
:102390000F4200D093E0022823DC1A9A002AC0D012
:1023A0004200013201269640F24352B291466278D1
:1023B00016004A46164072B294466270A2784E46A3
:1023C000164072B29146A270421C520001269640FD
:1023D000F24352B26646164066704E463240A270D4
:1023E000BCE7032824D01A9A002A49D0021F5200C1
:1023F000013201269640F24352B29146627B1600AA
:102400004A46164072B294466273A27B4E4616400C
:1024100072B29146A273C21E520001269640F24348
:1024200052B26646164066734E463240A27395E736
:102430001A9A002A10D0627894467F226646164087
:102440006670A6783240A270627B0126B243627346
:10245000A27BB243A27381E7627894468022524203
:10246000664616436670A6783243A27001229446EF
:10247000627B664632436273A27B3243A2736DE78E
:10248000021F520001320126B446964072B2667BAA
:10249000164376B2B1466673A67B324356B20396B4
:1024A000A673C61E7600B24666465246964072B283
:1024B0004E4616436673039E1643A6734EE7002AE4
:1024C00000D04BE71F4200D148E70D4200D145E75D
:1024D0000F4200D042E703282DDC1A9A002A16D0BA
:1024E000420001329446012292461600624696400E
:1024F000B146627816004A4696436670421C520006
:10250000564696403200A6789643A67026E74200CB
:102510000132944601229246160062469640627845
:1025200016436670421C5200564696403200A6780A
:102530003243A27012E71A9A002A11D0021F5200E9
:1025400001320126B4469640627BB2436273C21EDA
:102550005200664696403200A67B9643A673FDE67F
:10256000021F520001320126B4469640627B32437C
:102570006273C21E5200664696403200A67B32430A
:10258000A273EBE644460C26029BF61AE1688A1910
:1025900063699A4200DD5E1A1B9B22692000FFF7E7
:1025A000DBFB029DA91D04AB9C4661441B9B3200D2
:1025B0002000FFF7DFFA23695A1C1B9BE16820000B
:1025C000FFF7CAFB2900123104AB9C4661441B9BF8
:1025D00032002000FFF7CEFAE3689C466644E660CE
:1025E00063690B3B9E4212DB6378002B02D1002310
:1025F00002930EE00023E36023699A1C22611B9B77
:1026000000212000FFF7A8FB0023029301E0002334
:102610000293009B0C3B00935B4601339B46E368AF
:102620006269934200DBA6E0A269D11707230B4041
:102630009B18DB10013B22699A4200DB9DE0189B4E
:102640005A469B5C002B00D199E0009A0B2AE0DCF3
:10265000203BD9B28B0059184B4BC918002304AA50
:102660001370062204AB581C04F0FCF91A9B002BD3
:1026700000D00EE61822002104AB981D04F0ECF9FE
:1026800000231F00A44627E6062104A8FFF7C6F88A
:1026900032E00023E36023695A1C22611B9B002166
:1026A0002000FFF759FB199E00E0199E063D0137F7
:1026B000E3686269934240DAA269D11707230B40AD
:1026C0009B18DB1022699A4237DA4B46DB5D002B00
:1026D00033D0052DEADC203BD9B2002304AA1370C5
:1026E0008B005918284BC918052204AB581C04F05C
:1026F000B9F91A9B002BC7D106239B1B9A46E368A6
:10270000524699186269914201DDD31A9A4653469E
:10271000DAB2310004AB9C4661441B9B2000FFF7FA
:10272000A1FAE3685344E3606269053A9342BCDB73
:102730006378002BADD1199EB8E71B992000FFF7F5
:102740007DFA19980FB0F0BCBB46B246A946A04628
:10275000F0BD01204042F5E701204042F2E70020B1
:10276000F0E70020EEE70020ECE70020EAE7002099
:10277000E8E70020E6E70020E4E70020E2E70020A9
:10278000E0E701204042DDE7087E041000B583B099
:102790001A00C06800230093049B04F07BFD00280E
:1027A00002DD012003B000BD0020FBE710B582B0C0
:1027B000C0680024009404F061FD831C01D002B0C5
:1027C00010BD0020FBE700B585B078231A000A4051
:1027D0000B420DD0782A02D1022040420AE0C068A4
:1027E0000023009301330F226A4404F053FD01E0FB
:1027F000022040420230431E9841C0B205B000BDE5
:1028000010B50400C06804F00DFD2078032100F02D
:102810000FF86078032100F00BF8207800220121E6
:1028200000F01EF860780022012100F019F810BDB8
:1028300010B58300084A944663441C6840226240F5
:10284000C02414408022520113431C60C000034B7B
:102850009C466044416010BD04C0014000400140FE
:1028600080000B4B9C46604400290DD00823002AB1
:102870000CD004221343026853400C2213408022E0
:1028800052011043036070470023F0E70022F1E794
:1028900004C00140002909D08000094B9C466044D7
:1028A00080239B0118430223036070478000044B80
:1028B0009C466044C0239B01184302230360F4E755
:1028C00004C001408000064B9C4660440901036837
:1028D00059403023194080235B0118430160704741
:1028E00004C00140072303409B00C00899403C30CE
:1028F0008000014BC150704700400140F8B507000F
:102900000C0016001D00FFF7EDFFFB089B00ED1803
:102910000720384080008440002E04D080239B0193
:102920001D432C60F8BDC0239B011D432C60F9E7BB
:1029300010B5D0231B061B68002B03D0024BFFF7FA
:10294000DDFF10BD014BFAE730410140004101407D
:1029500010B51C00FFF7ECFFD0231B061A6892008D
:10296000054BD45005490D2001F0D6FB01210D2067
:1029700001F0C2FB10BDC0468C360020812900103A
:1029800070B5D0231B061B68002B02D0134D00240A
:1029900002E0134DFBE701341D2C1DD8E30808337A
:1029A0009B005A59072323409B00DA4013000F2253
:1029B00016001E401A42EED031002000FFF792FFB1
:1029C000D0231B061B689B00064A9B58002BE2D0B5
:1029D000310020009847DEE770BDC046304101401D
:1029E000004101408C360020EFF3108072B6034B9B
:1029F0001B68002BFBD0BFF35F8F70472C0100D00A
:102A0000BFF35F8F024B00221A6080F3108870477B
:102A10002C0100D0F8B506000C001500FFF7E4FF0C
:102A2000E308F718F15C07222240012393400B4290
:102A300005D1DBB20B433B70FFF7E2FFF8BD21008D
:102A4000280001F0CFF90000034B1B68022018405A
:102A5000431E9841C0B2704700C00640002307E003
:102A6000054A9A189200BFF35F8F0021116001336D
:102A70001F2BF5D97047C04640000034054A107836
:102A8000431CDBB21370172B02D9130010221A70EB
:102A90007047C0462812002070B504000D000620C3
:102AA00001F0BAFAC000290002F098FEC60908D069
:102AB0000E4B9E4217D87F23184001303500460840
:102AC00000E001256562A6622C3480208001044369
:102AD00000232360062001F09FFA8000A9018919D4
:102AE00002F07CFE70BD0026014DEBE7FEFF00000A
:102AF000FFFF0000002909D00A22064B9C466044D3
:102B0000434258414000044BC25270478022520059
:102B1000F3E7C0460080FCBFD439002070B5050043
:102B20000C00062001F078FA002829D0164B9D42AF
:102B300027D08022D203154B1A60154B1A60154B13
:102B40009B6811009943FAD100212800FFF7D2FFBA
:102B500021002800FFF7A0FF2C002C34E96A602236
:102B60004A406E21114080225201224311600A4BDB
:102B70002B6380239B01234310221A600323AB6441
:102B800070BD80221204D6E70080034000E00040C0
:102B900000F0004000C000400103000070B50500D7
:102BA0000C00080000F014FD200000F01DFE084994
:102BB000200000F05DFDFFF761FF064B9C4660447E
:102BC000800068602C75A400034BE55070BDC046C2
:102BD000E12E001040000034A83700200A4B1A688C
:102BE000EFF3108172B61368002BFCD0BFF35F8F38
:102BF000054B1B68BFF35F8F00221A6081F31088BA
:102C000040BF002000217047C039002010B50029C6
:102C100022D003681B7B99421ED8174B9C46614407
:102C2000090183689C4661440C684968002A19D0F0
:102C300003681B7B9A4215D883680F488446624418
:102C400012019A1810685368020001208B4201D8C3
:102C50000ED00020C0B210BD084B094A3B210948E4
:102C600001F0A2F8054B064A3B21064801F09CF80A
:102C7000A242EFD8EDE7C046FFFFFF0F309B0410E4
:102C80009C9D0410009B041010B500291ED0037BEE
:102C900099421BD84B005B18033B0468A44663446D
:102CA000002919D0002A1DD0914221D0002A25D018
:102CB000047BA24222D804685000801803382018F0
:102CC0008170197800291FD11A7010BD104B114A5C
:102CD0006921114801F068F8104B114A70310E4813
:102CE00001F062F80F4B0E4A71210B4801F05CF8BD
:102CF0000D4B0B4A7221084801F056F8044B054A67
:102D00006921054801F050F841701A70DDE7C046AE
:102D1000649B0410089E0410809B0410C09B041048
:102D2000E49D0410CC9B0410D89B041070B50600E1
:102D30000D001400002914D0002A14D08068736894
:102D40009847002806D0220029003000FFF79CFF9A
:102D5000280007E02A0021003000FFF795FF20003F
:102D600000E0100070BD0800FCE70000F0B583B083
:102D70000500009201930AAB1C780BAB1F78002C66
:102D800026D003685A7B944207D10123002B19D126
:102D9000002C3BD1200003B0F0BD002C0CD01A7BDE
:102DA000944209D81A6863001B19033BD3189B7817
:102DB000002BEBD00123E9E73E4B3F4A69213F4816
:102DC00000F0F2FF3E4B3F4A65213F4800F0ECFF28
:102DD00003689C7B002CDBD012D01A7B94420FD866
:102DE00062001219033A19688C466244517899734B
:102DF000002900D1D9730023937053701370C7E773
:102E00002C4B2D4A69212D4800F0CEFF002C3AD0E2
:102E10002B681B7B9C4236D82C4BE3181B01AA68FD
:102E200094466344009A1A60019A5A60089A9A601C
:102E3000099ADA602E68002C2BD030D0337B9C426C
:102E40002DD863001B19033B32689446634400226B
:102E50009A705A701A70717B22003000FFF766FF7B
:102E60007073844200D095E7287D009A019B00F0A2
:102E700047FC061E01D0002F17D00C9B002B00D161
:102E800088E71E7086E7124B124A3B210E4800F07D
:102E90008BFF114B114AA621084800F085FF054B16
:102EA000054A6921054800F07FFF2868210000F0ED
:102EB00071FEE2E7649B0410089E0410809B0410DE
:102EC000F09B0410149E0410009B0410FFFFFF0FE2
:102ED000309B04109C9D0410FC9A0410F89D041073
:102EE000F0B5DE4657464E464546E0B58BB00990F4
:102EF000002308938200B24BD658370032E0B14B22
:102F0000B14A3D21B14800F04FFFB14BB14A3B21DE
:102F1000B14800F049FFB14BB14A8C21AE4800F0F6
:102F200043FFB04BAE4A9021AB4800F03DFFA84BA9
:102F3000AD4A4021A84800F037FF2A686B6809981D
:102F400000F0DEFB00239A4698467B68BFF35F8F54
:102F500000221A6086F310884346002B51D10028C6
:102F600000D126E100F040FB02000B1EC7DB002071
:102F70000021069007917868EFF3108672B6016819
:102F80000029FCD0BFF35F8F396888464C7B002C4A
:102F900032D0BAD0097B8C42B7D8944965182D013C
:102FA000B9688C46654428686968801A9941002987
:102FB000C3DC01D10028C0D10021404600F0E0FD73
:102FC000A042A8D12A686B6806920793AB6898461E
:102FD000EB689A464346002BA3D0002CA7D03B6851
:102FE0001B7B9C42A3D8631EFA68D35C08931B0228
:102FF000184338610020A8E700239A46984600202D
:10300000A3E7089B1B022343994651461800C0477B
:1030100005000E007A68EFF3108B72B61368594200
:103020004B41D9B2002BF9D1BFF35F8F002E26DBC5
:10303000002E52DD3B69002B53D04B4572D100F07E
:10304000D3FA02000B1E73DB010018005219734102
:10305000984202D804D1914202D901225242D31798
:10306000002B6BDB00210491013103910294514646
:103070000191414600913800FFF778FE49E03B6935
:10308000002BD5D04B451CD1069A079B1000190088
:10309000521BB341994202D804D1904202D9012275
:1030A0005242D317002B12DB00210491013103910E
:1030B000029451460191414600913800FFF756FEB7
:1030C00027E04B4B464A9F21434800F06DFE3D4BA5
:1030D0003D4A3D213D4800F067FE002E01D1002D04
:1030E000A8D13A68002C45D0537B9C422CD10121B9
:1030F00000293FD1D37B002B42D1D473002C52D076
:103100003B681B7B9C424ED8FA68013C135D01333F
:10311000135500233B617A68BFF35F8F13608BF315
:1031200010881FE7324B2E4AA2212B4800F03CFEAC
:10313000244B254A3D21254800F036FE214B224AEA
:103140003D21224800F030FE002C0DD0137B9C4224
:103150000AD863001B19033B1068844663449B78BC
:10316000002BC5D00121C3E7224B234A6921234804
:1031700000F01AFE224B234AF721204800F014FEEB
:10318000002B0AD0117B8B4207D85900CB18033B88
:1031900011688C4663445C70AFE7164B164A692190
:1031A000164800F001FE0A4B0F4A40210A4800F081
:1031B000FBFD0BB0F0BCBB46B246A946A046F0BD35
:1031C000A8370020189C0410689D0410349C04103B
:1031D000309B04109C9D0410009B0410709C0410F4
:1031E000809D0410889C0410C09D0410FFFFFF0FF9
:1031F000949C0410649B0410089E0410809B04108F
:10320000D09C0410D49D041010B50A4B5B68002BB1
:1032100004D00A21084800F007FB10BD054C23002C
:10322000064A1021206800F0CBFB03212000FFF7A5
:10323000B5FCEEE72C120020C03900200D2C001048
:1032400010B5064B5B68002B01D0044810BD044B41
:10325000044A5C21044800F0A7FDC0462C1200205F
:10326000F49C0410A89D0410009B0410F0B5DE46E9
:1032700057464E464546E0B58BB0804616001F00C7
:10328000149B9A46159B994616AB1B789B461F23A9
:1032900002AA9446634400221A7032E0002809D042
:1032A00042461268127B904204D8421E4146C968C9
:1032B0008A5C48E0434B444A4021444800F074FD96
:1032C0000798002B75D05B46002B72D04946D0473B
:1032D00004000D0003000B4300D171E0002946DB20
:1032E00000F082F906000F1E55DB36196F41B94216
:1032F00002D804D1B04202D901267642F717002F36
:103300004FDB43465A68EFF3108472B61368594294
:103310004B41D9B20791002BF8D1BFF35F8F1F3318
:1033200002AA9446634404930023039302934B46FA
:1033300001935346009332003B004046FFF716FDD1
:10334000031EABD1020041464968BFF35F8F0025E1
:103350000D6084F31088002B29D01F2302A98C460E
:1033600063441B78002BABD112021043A9E7320053
:103370003B00361BAF41BB4202D804D1B24202D956
:1033800001267642F717002FBBDA114B114A3D2177
:10339000114800F009FD0E4B0E4A3D210E4800F089
:1033A00003FD0B4B0B4A3D210B4800F0FDFC0120B7
:1033B00040420BB0F0BCBB46B246A946A046F0BDA9
:1033C0000798F6E7309B0410C09D0410009B041082
:1033D000189C0410689D0410349C0410F0B587B04C
:1033E00006000F00FCF73FFF00281FD106246442AF
:1033F000E517A4197D41BD4202D803D1B44201D9D9
:1034000000240025002D14DB0494059500F0ECF851
:1034100002000B1E13DBA41A9D41002D17DC14D0F3
:103420003000390000F0ECF807B0F0BD234800F0A0
:10343000D9FC234B234A3D21234800F0B5FC204B07
:10344000204A3D21204800F0AFFC002CE8D0FFF7D7
:10345000F7FE0023029301931C4B0093049A059BF3
:10346000FFF704FF002818DADAE7002300E0002362
:10347000002BD5D1164B1A68EFF3108172B6136882
:10348000002BFCD0BFF35F8F114B1B68BFF35F8F26
:1034900000221A6081F3108820BF0499059A0D4B11
:1034A0005B6A9A42E3D80B48806A884203D29A4208
:1034B000DBD00123DCE70123DAE7C046189D0410C6
:1034C000189C0410689D0410349C0410DD2B00101F
:1034D000C039002000400540F8B504000D0000F0A0
:1034E00083F802000B1E10DB2000290080185941D0
:1034F0008B4202D804D1824202D901204042C11736
:10350000002908DBFFF76AFFF8BD064B064A3D219C
:10351000064800F049FC034B034A3D21034800F0F4
:1035200043FCC046189C0410689D0410349C041091
:1035300010B5FA2292000023002103F02FF9FFF7C3
:10354000CBFF10BD70B5EFF305833F201840103856
:10355000EFF3108C72B6194B1B68002BFBD0BFF336
:103560005F8F012319008140154A5163154A127873
:103570001400C440234214D0114B5C6A8300124DE6
:103580005B599C4206D38300104C1B598A430D495A
:103590000A7007E00A4A031D9B00995899500023BE
:1035A00000E00023BFF35F8F044A002111608CF319
:1035B0001088002B00D0984770BDC046280100D06D
:1035C00000400540E0390020C43900209C3600202E
:1035D00010B50100024A0348FFF71CFA10BDC046AF
:1035E000389E0410DE390020044B5B6A034A906A5F
:1035F0001900536A9942F9D17047C046004005400E
:10360000084B5B6A01E0074B5B6A8B42FBD301E02E
:10361000044B5B6A8B4203D1024B9B6A8342F7D314
:103620007047C0460040054070B504000D00FFF72C
:10363000DBFF02000B0020002900801859418B425B
:1036400002D804D1824202D901204042C117002988
:1036500002DBFFF7D5FF70BD024B034A3D21034853
:1036600000F0A2FB189C0410D49E0410349C04109B
:1036700070B504000D00EFF3108672B61B4B1B688B
:10368000002BFBD0BFF35F8F002D1CD0200000F07B
:103690003BFD174B83420BD01900200000F03CFD8E
:1036A0000121200000F028FD0123A340114A1360EE
:1036B000A400114BE550BFF35F8F0C4B00221A6042
:1036C00086F3108870BDA2000B4B0021D15001225F
:1036D000A2400A490B7893430B700549200000F083
:1036E00045FD0021200000F007FDE4E7280100D09F
:1036F00045350010386005409C360020E039002038
:10370000F0B5DE4600B584B00400150001921E003D
:103710000293FFF769FF03958E4202D84ED185428E
:103720004CD9EFF3108B72B6274B1B68002BFBD0E4
:10373000BFF35F8F254A17780125A540EBB23B43C5
:103740001370234B5D63221D92000199D150A2009A
:103750002049029850501B6A2B4212D11C4B1B6C03
:103760002B4208D00020BFF35F8F174B00221A6056
:103770008BF3108823E0184B184AC121184800F039
:1037800013FBFFF731FF8E4214D802D1039B834213
:1037900010D80E4B1B78BB420ED00D4B1D625D63E3
:1037A0001F2004400123A3400E4A1360074B1F70E3
:1037B0001E38D8E70020D6E70120D4E7012004B066
:1037C00080BCBB46F0BDC046280100D0E0390020D7
:1037D00000400540C43900205C9E0410B89E0410CF
:1037E000809E041080E200E0EFF3108C72B60B4B69
:1037F0001B68002BFBD0BFF35F8F01238340084A77
:10380000136208490A789A430A70BFF35F8F034B2B
:1038100000221A608CF310887047C046280100D03F
:1038200000400540E0390020024B9C46614489007D
:10383000016070474000003470B504000D00FFF7D0
:103840001DF901002000FFF7EFFFFF2323716571D1
:10385000BFF35F8F70BD10B50021FFF7EDFF10BD06
:1038600010B5FF21FFF7E8FF10BD000010B50029DB
:103870001ED0037B99421BD84B005B18033B0468A6
:10388000A4466344002919D0002A1DD0914221D0BA
:10389000002A25D0047BA24222D804685000801858
:1038A000033820188170197800291FD11A7010BDB3
:1038B000104B114A6921114800F076FA104B114A59
:1038C00070310E4800F070FA0F4B0E4A71210B4810
:1038D00000F06AFA0D4B0B4A7221084800F064FAB6
:1038E000044B054A6921054800F05EFA41701A70E0
:1038F000DDE7C046649B0410A8A00410809B041060
:10390000C09B041094A00410CC9B0410D89B0410FE
:1039100070B506000D001400002914D0002A14D040
:10392000806873689847002806D02200290030007C
:10393000FFF79CFF280007E02A0021003000FFF776
:1039400095FF200000E0100070BD0800FCE70000BB
:1039500010B50023437301338373037BC3730123C7
:10396000027B9A4214D9002B0CD0027B934209D8D7
:103970005A00D218033A01688C4662440133DBB224
:103980005370EDE70B4B0C4A69210C4800F00CFA20
:10399000002A09D0924207D8016853009A18033AC6
:1039A0008A180023537010BD024B034A6921034853
:1039B00000F0FAF9649B0410A8A00410809B041086
:1039C00010B5017342608360FFF7C2FF10BD0000B5
:1039D00070B50400081E00D170BD002934D0237BCF
:1039E000994231D84B005B18033B226894466344EC
:1039F0005A78002AF0D02DD0237B9A422AD853003F
:103A00009B18033B21688C4663445D780021597004
:103A1000002825D0237B984222D843001B18033B63
:103A200021688C4663440021597001002000FFF793
:103A30006FFF060029002000FFF7CAFF02003100D7
:103A40002000FFF765FFC7E7084B094A69210948CD
:103A500000F0AAF9054B064A6921064800F0A4F9CE
:103A6000024B034A6921034800F09EF9649B04104D
:103A7000A8A00410809B041070B505000C0016006F
:103A8000002928D02DD0037B99422AD84B005B18FF
:103A9000033B0268944663445A78002A27D19A78F7
:103AA000002A2AD11978FFF793FF0300002E03D0D4
:103AB000EA7B002A27D1EC73002B37D1002C49D0A8
:103AC0002B7B9C4246D82B6861000C19033C1C19C7
:103AD0000023637070BD224B224A3821224800F037
:103AE00063F9224B224A6921224800F05DF9224BFA
:103AF0001C4A3A211C4800F057F9204B194A3B2137
:103B0000194800F051F9002A0AD0297B8A4207D8C7
:103B100051008A18033A29688C4662445470CAE7F7
:103B2000124B134A6921134800F03EF9002B0BD0C9
:103B30002A7B934208D843001B18033B2A6894460B
:103B4000634400229A70B9E7084B094A6921094881
:103B500000F02AF9054B064A6921064800F024F9CD
:103B6000BC9F041080A00410C49F0410649B041028
:103B7000A8A00410809B0410F49F04101CA0041043
:103B800070B504000A00457B2900FFF775FF6073DC
:103B9000280070BD70B50400002967D0437B8B42BC
:103BA0000ED0002911D0037B99420ED84B005B1830
:103BB000033B0268D0188378002B0CD1002056E01C
:103BC0000121FFF7DDFF012051E0294B294A69213E
:103BD000294800F0E9F8002B20D0227B93421DD821
:103BE0005A00D318033B2268D2182568EB5C8B423D
:103BF0001AD0002B1BD0227B934218D85A00D3181E
:103C0000033B2268D21853788B4216D0002BF0D198
:103C10001A4B1B4A67211B4800F0C6F8144B154A83
:103C20006921154800F0C0F84378137007E0104B85
:103C3000104A6921104800F0B7F843785370002308
:103C40008370437001222000FFF716FF0200617BA2
:103C5000814205D02000FFF75BFE6073012006E083
:103C6000094B074A6D21074800F09EF8002070BDFF
:103C7000649B0410A8A00410809B041040A00410B2
:103C800068A00410C49F041048A0041070B5264B0F
:103C9000264A1A60264B274A1A60274B9A68254BFA
:103CA0009343FAD1254C01E008CC9847244B9C4221
:103CB000FAD300F031F91E4B224A1A601E4B9B6862
:103CC000DB43DB01FAD1204B40229A675A671A671F
:103CD000DA661E4C03E02000FFF7BDFD08341C4BE4
:103CE0009C4206D26379002BF5D02000FFF7B8FD87
:103CF000F4E7184CA168184DC022280002F0B2FE6B
:103D0000A560FCF7B0FA002800D000BEFEF7A6FEC2
:103D100000F08EFBFFF778FA104C01E008CC9847D2
:103D20000F4B9C42FAD370BD00E00040BFCDFBFEBC
:103D300000F00040FE7F3C0000C00040981D0020C5
:103D4000A81D0020FFFFFF0100F00140901D002092
:103D5000981D002000ED00E000000020A81D0020BC
:103D6000D41D002000BEFDE703000A4A1268002AA5
:103D700008D0084A1068C318074A9A4206D3054A71
:103D800013607047034A05491160F2E70120404281
:103D9000F7E7C0462037002000000420E439002067
:103DA00010B5FFF7DFFF000010B582B00C0019005E
:103DB000002A0CD0084B002A0BD00192009323005C
:103DC0000200064802F0FAFF0120FFF7CBFF044B88
:103DD000F1E7034AF1E7C046B4A00410C4A0041000
:103DE000387D04100FB400B583B0084802F0B6FF68
:103DF000049B002B07D005A90191180002F0BCFF1D
:103E0000034802F0ABFF0120FFF7ACFFF4A0041061
:103E100038E20410F8B5DE4657464E464546E0B552
:103E200005000F0092460A9A93424ED31A0E91460D
:103E30001E020A9A00233000494601F011FD804617
:103E40006C006419A4002F4B9C4664446368834251
:103E500000D260602B1FDBB29B46012B3BD9C023F5
:103E60009B012343802212011A60AB00264A995815
:103E7000002905D0506901F0B1FC01300138FDD1B5
:103E800053465A0123685A40E0231A4080235B01BD
:103E900023431A605A46012A28D980239B012343D1
:103EA000802212011A6043466360424600233000BC
:103EB000494601F0D5FCAD00134B58510120F0BC30
:103EC000BB46B246A946A046F8BD104B104A2D216C
:103ED0001048FFF769FF012FC1D1C0239B01234385
:103EE00003221A60A368DB07FCD5C9E72168794083
:103EF00003220A401A60A2680123BB401342FAD091
:103F0000CBE7C04600800040AC36002004A104107E
:103F100054A1041018A1041030B583B00C2000F097
:103F20001FFBFEF791FD00280DD0002304E099004F
:103F30002D4A2E4888500133092BF8D92A4B2C4A98
:103F40005A6203B030BD2B4B00229A6700F010FB81
:103F5000294B01221A60274B5B6C012BFBD1274BAD
:103F600003221A60234B9B6B012BFBD1022400948C
:103F70000533234A0121234800F066FA0094052303
:103F8000214A0121214800F05FFA214B00930022D1
:103F900002210420FFF73EFF1E4D00952B0000225A
:103FA00001210520FFF736FF104C0094230000226A
:103FB00000210720FFF72EFF00942300002200219C
:103FC0000820FFF727FF0A4B00932300002200215F
:103FD0000920FFF71FFF00952B000022002106207B
:103FE000FFF718FFADE7C046AC360020006CDC02DE
:103FF0001BB70000008000403CB0004030B00040E3
:10400000002F68590080024000389C1C00C002400C
:10401000001BB700405973078000014BC058704720
:10402000AC360020074B9B68103080001950BFF35E
:104030005F8FBFF35F8F044B0021196082F31088FC
:104040007047C04600ED00E0240100D010B5091A09
:1040500004394808090B05D14005400D044B1843AD
:1040600080B210BD034B044A8C210448FFF79CFE2C
:1040700000E0FFFF64A1041064A3041074A1041005
:1040800010B5091A04394C08090B08D14905490D26
:10409000064A11430180064B2343438010BD054B64
:1040A000054A94210548FFF77FFEC04600F0FFFF58
:1040B00000F8FFFF64A1041038A3041074A10410D9
:1040C00001238340034A10681840431E9841C0B240
:1040D0007047C04600E100E0002904D0034B18609F
:1040E000034B18607047034B1860FBE780E200E069
:1040F00000E100E080E100E010B5012383401800FA
:10410000FFF7EAFF10BD0000024B9B6810308000F3
:10411000C058704700ED00E070B504000D00EFF3EB
:10412000108672B60C4B1B68002BFBD0BFF35F8F61
:104130002000FFF7E9FF094B984201D0A84205D1C2
:10414000320029002000FFF76DFF70BD044B054AC7
:1041500070210548FFF728FE240100D0CD01001092
:10416000A8A1041080A3041074A10410F0B5CE46D9
:10417000474680B583B006000D00EFF3108872B695
:10418000574B1B68002BFBD0BFF35F8F554B9A68D2
:1041900034001034A300D758534B9F4207D0AF428E
:1041A00000D19BE00197514BFB1A2F2B09D94246B6
:1041B00039003000FFF736FF03B0C0BCB946B04647
:1041C000F0BD3000FFF77CFF814600213000FFF793
:1041D00093FFBFF35F8FFCF746F8002801D08442BD
:1041E00019D10123019C9C43230040495B1A5B4188
:1041F00048495943090D49B20022A368AB4212D085
:104200000622A256002A0DDB53009B189B002200B9
:10421000364CE418F1E72021354B364AFF31364859
:10422000FFF7C2FD2200AB4251D106256557002D94
:1042300039DB6B005B199A002C4B9B189A68A260C3
:10424000DA79E27106229A56A2719B795BB2002B51
:1042500010DABD200002A0806B005B199B00234A8E
:10426000D318264A11789971157049463000FFF726
:1042700043FF9CE7201D6B005B199B001B4A9B18AA
:104280001A1D9B88D90A1C2907D15B055B150233CF
:1042900059005118FFF7DAFEDDE7194B194A9A2148
:1042A0001548FFF781FD00280CD1002A08D0FF2314
:1042B0009371154B9380114B1A78A2711970D4E742
:1042C000094FF8E7201D1149FFF7DAFECDE7AA21D3
:1042D0000F4B084A49000848FFF766FD024F66E7A2
:1042E000240100D000ED00E0CD01001054120020A8
:1042F000BCA2041050A3041074A10410DF390020E4
:10430000A4A2041070A3041000BDFFFF8E120020B1
:10431000E0A20410AAAA000010B5032304009C43E5
:10432000064A9446644422681840C000FC33834027
:104330009A43130081400B43236010BD00E400E06A
:1043400070B50400012606432D4BF31A2F2B28D8F5
:10435000FBF789FF00282BD0EFF3108C72B6294BA6
:104360001B68002BFBD0BFF35F8F2300244D5B1B2A
:104370005B412E4D5D432D0D6DB2234B9B6880003C
:104380001B58B3421BD00022032A32D853009B187B
:104390009B001B49CB189B795BB2AB421FD001320B
:1043A000F2E77221194B1A4AFF311A48FFF7FCFC59
:1043B000BA21194B164A49001648FFF7F5FC124B73
:1043C0009B68164A1A50164B1A78A2711D70BFF3DB
:1043D0005F8F0C4B00221A608CF3108870BD0800B0
:1043E0005300991889004118FF268E710D4A8A8062
:1043F000E9E786210C4B064AFF310648FFF7D4FC5B
:1044000054120020240100D000ED00E0E8A20410C6
:104410001CA3041074A1041010A30410CD010010FB
:10442000DF39002000BDFFFF40A00410AAAA000051
:1044300010B5002404E080212000FFF76DFF013457
:104440001F2CF8D910BD0000F0B5CE4600B5040011
:104450000E0091461F000C2001F0C0F90500430139
:104460001B1A9901C91AC90009188901484601F0A7
:10447000B5F90200103A98235B009A4233D87B1EAC
:10448000062B36D8069B013B062B32D8069B9F4253
:1044900035D34B461A09AA4237D33F04069B1D0366
:1044A0002F432368002B36DB234B9C4241D08022D4
:1044B0005201224B1A60224B1A60224B9B6811005A
:1044C0009943FAD12660A060231DC02292011A43AD
:1044D000212313602368002BFCDAE76008231360B4
:1044E00080BCB946F0BD184B184A16211848FFF792
:1044F0005BFC184B154A19211548FFF755FC164B64
:10450000124A1F211248FFF74FFC144B0F4A222179
:104510000F48FFF749FC22683F231340B342C3D141
:10452000A3681B051B0D8342BED1E368002FBBD1DE
:10453000D6E780229201BCE700C0024000E00040C4
:1045400000F0004000C000409CA304106CA40410C4
:10455000B8A30410ECA3041038A4041050A4041051
:1045600080239B000343014AD362704700800540CB
:10457000064BAA2212011A602F22DA60044B054A68
:104580001A60024B5B68002BFBDA70470040024068
:104590000060024000B0FA009A4200D2885470478E
:1045A000704710B5002802D00B684968984710BDC5
:1045B0000100002007E083001B185B00501C08600E
:1045C0001078C01830380A681378303BDBB2092BFA
:1045D000F1D97047F0B5DE4657464E464546E0B540
:1045E00083B093461F000C9B9A460D9C0E9B9946E8
:1045F0000F9B9B0703D0B8460F00060022E00192F4
:10460000A34688464E46B9460700B44207D2551C19
:104610004B4641462020B84701342A00F5E73D00CB
:104620004F465C46019B9B46B1464646B84637001E
:104630002E0007E0013C551C5346185D43463900E7
:10464000B0472A00002CF5D135003E0047460F9BAD
:104650009B0707D4100003B0F0BCBB46B246A94686
:10466000A046F0BDB0464E46B9462F005D46531BEE
:10467000B342EFD2541C4B4641462020B84722009B
:10468000F5E7F0B5CE46474680B585B094469846E6
:104690000C9D0D9C0EAB1B789946109A119B129E97
:1046A000B7071CD4002B0CD0F7070AD54F46002FB4
:1046B00002D10C37374204D0013B02E030272F559E
:1046C0000134944201D21F2CF8D9F70707D59C4238
:1046D00005D21F2C03D830272F550134F5E7F706F4
:1046E00015D5770505D4002C03D0944224D09C42E4
:1046F00022D00F9A102A2BD00F9A102A30D00F9A5E
:10470000022A35D01F2C02D830222A5501341F2C02
:1047100005D84A46002A31D02D222A550134039665
:1047200002930194009543466246FFF753FF05B09C
:10473000C0BCB946B046F0BD621E012C06D00F9F2A
:10474000102F01D01400D4E7023CD2E71400D0E7C8
:10475000B206D1D41F2CCFD878222A550134D1E704
:10476000B206CCD51F2CCAD858222A550134C9E725
:104770001F2CC7D860322A550134C3E7720703D50E
:104780002B222A550134CAE73207C8D520222A55E0
:104790000134C4E7F0B5DE4657464E464546E0B51F
:1047A00093B081468A46089209931CAB10CB1B78C4
:1047B0009B461E9D219B9846002C03D11023424608
:1047C0009A4390468023DB0046461E4042461A42EA
:1047D00012D0002C22D000260EE03033D9B2771C44
:1047E0000AAB99552900200000F0F8FFAC4216D31F
:1047F0001F2F14D83E0004002900200000F0EEFF17
:10480000CBB2092BE9D94246920605D54121C918F8
:10481000C9B20A39C9B2E2E76121F8E72700434685
:104820000693209B05931F9B049303955B4602937D
:1048300001970AAB0093099B089A51464846FFF737
:1048400020FF13B0F0BCBB46B246A946A046F0BD5F
:10485000F0B5DE4657464E464546E0B595B0089061
:1048600009910A920B931E9E1F9C20AB1B789B46BE
:10487000229B9946239D269B9A463300234303D1CE
:10488000103352469A4392468023DB0057461F401E
:1048900052461A4219D0330023432DD0002714E08A
:1048A0003033DAB27B1C98460CABDA554A462B0003
:1048B0003000210000F0D4FFA5421FD819D0434694
:1048C0001F2B1BD8474606000C004A462B00300021
:1048D000210000F0C5FFD3B2092BE1D95246920660
:1048E00005D54122D218D2B20A3AD2B2DAE7612211
:1048F000F8E7B145E3D901E0002398465346069313
:10490000259B0593249B04934B4603935B4602939C
:10491000434601930CAB00930B9B0A9A09990898A4
:10492000FFF7AFFE15B0F0BCBB46B246A946A046A5
:10493000F0BD0000F0B5DE4657464E464546E0B5B0
:1049400091B083468A460C9298461A9C08941B9D07
:10495000099522002B002000290001F016FA0028FA
:1049600000D0E5E001225242D74B2000290001F09F
:1049700007FA002800D0DBE001225242D34B20008E
:10498000290001F0E7F9002800D0D1E0002200233F
:10499000089D2800099E310001F0DCF9002800D0B4
:1049A000DDE008980999069007918023DB001E9AA4
:1049B0001A400D921E9A1A4201D106231C930698A2
:1049C000079904000D000A000600024300D1D1E05F
:1049D000080D4005400DBE4CA44660440A03120B6E
:1049E000BC4B13431F0001F0E3F9BB4ABB4B01F082
:1049F00066F9BB4ABB4B01F03BF904000D000022F5
:104A0000B94B3000390001F02AF9B84AB84B01F02F
:104A100056F902000B002000290001F029F901F0ED
:104A2000DFF9814601F0C4F904000D00B14AB24B30
:104A300001F045F90022B14B01F01AF901F0D0F96B
:104A40000600AF4AAF4B2000290001F038F90400FE
:104A50000D00300001F0ACF9AB4AAC4B01F02FF97E
:104A600002000B002000290001F0F9F804000D00FD
:104A700002000B0001F023F90A900B91A44BF318EC
:104A800000261F0522002B002000290001F0F0F86D
:104A90000E900F9122002B0000208021C90501F00B
:104AA000DEF804000D0000229A4B0A980B9901F0E1
:104AB000E8F80022984B01F0DBF802000B000A989E
:104AC0000B9901F0DEF80022944B01F0D1F80200BE
:104AD0000B000A980B9901F0D4F802000B0020009B
:104AE000290001F0C5F802000B000E980F9901F0A3
:104AF000C8F80022774B01F0BBF832003B0001F010
:104B0000DEF806000F0004000D00069A079B01F076
:104B100037F9002830D001235B429C46E144002253
:104B20007D4B3000390001F0ACF804000D0023E0AB
:104B30001E9B04931D9B03931C9B0293089A099B45
:104B40000092019343460C9A5146584600F0FCF8F7
:104B500011B0F0BCBB46B246A946A046F0BD00234A
:104B6000002406930794069580231B069C46664402
:104B700007961AE7002399464B466333C62B1ED887
:104B800004261E9B1B0526D52B0023430FD0644A09
:104B9000644B0698079901F0EBF8002879D00022C1
:104BA000614B0698079901F0D5F8002871D01C9B3D
:104BB0004B4506DD4A46981A431E1C9303E0052622
:104BC000DFE700231C938023DB001E9A1A431E920A
:104BD0000026002399461D9B9E4264D29F1B022300
:104BE0001E9A1A400A921E9A134202D0002E00D03A
:104BF00000274B46002B07D022002B000698079970
:104C000001F03FF8069007910022002308980999C7
:104C100001F0A0F8002848D1444B1E9A1340049399
:104C200003971C9B0293069B079C009301944346A9
:104C30000C9A5146584600F087F8002E00D187E7BD
:104C40001E9B9B063DD54525441C4346020051460C
:104C50002800D8474B46DA179B1853400522059287
:104C6000013E0496002203920A3202924A46D00F75
:104C7000019000934346220051465846FFF78AFDB3
:104C80000A9B002B00D163E702005F460C9E1D9D2E
:104C900054E01C9B002B9ED00D9B002B9BD01C9B9B
:104CA000013B1C9397E7002799E7069C079D22008C
:104CB000290080200006844661440B000692079379
:104CC000AAE76525C0E7C046FFFFEF7FFFFFEFFFC4
:104CD00001FCFFFF0000F03FFB799F501344D33FDE
:104CE000B3C8608B288AC63F0000F83F61436F63FA
:104CF000A787D23F71A379094F930A400000E03F94
:104D00001655B5BBB16B0240EF39FAFE422EE63FB5
:104D1000FF03000000002C40000024400000184069
:104D20002D431CEBE2361A3F80842E41FFF7FFFF34
:104D3000541C434651462020B8472200931BAB42E7
:104D4000F6D3100004E7C046F0B5DE4657464E469F
:104D50004546E0B595B00690079193469946209F49
:104D60001E9A1F9B1000190001F00FF8002831D186
:104D700001225242BF4B1E981F9900F0EBFF002802
:104D800037D101225242BC4B1E981F9900F0F8FF08
:104D900000283DD10022B94B1E981F9900F0F0FF6A
:104DA000002850D10022B64B1E981F9900F0D2FF68
:104DB000002848D1002200231E981F9900F0CAFF46
:104DC000002850D100239846229B5B0500D4B6E012
:104DD000002458E0229B0393219B02930323019319
:104DE000A84B00934B465A4607990698FFF7F2FBEB
:104DF0000EE1229B0393219B029304230193A24B78
:104E000000934B465A4607990698FFF7E3FBFFE0ED
:104E10000423229A1A4022990B4210D09B4B002A5D
:104E20000FD00422229903912199029101920093BB
:104E30004B465A4607990698FFF7CCFBE8E0944B9F
:104E4000EDE70322EEE7229B0493219B0393029755
:104E50001E9B1F9C009301944B465A460799069847
:104E6000FFF768FDD4E01E9A1F9B0020002100F090
:104E7000F6FE1E901F9101239846A5E70CAB302249
:104E80001A55013F01341F2C01D8092FF6D81E985E
:104E90001F9900F0A5FF050000F08AFF02000B003B
:104EA0001E981F9900F0DBFEFA007A4B9B181A68D7
:104EB0005B680A920B9300F002FF0890099100F0E2
:104EC000B3FF060000F070FF02000B00089809997C
:104ED00000F0C5FE0890099100226F4B00F050FFD2
:104EE00000282ED00136300000F05EFF02000B00DB
:104EF0000A980B9900F034FF002801D001350026F4
:104F0000002F2CD1280000F053FF02000B001E9848
:104F10001F9900F0A4FE06000F0000225E4B00F077
:104F200019FF002846D100225B4B3000390000F009
:104F300027FF00283ED1EB073CD501353AE0062794
:104F400046E70022544B0898099900F003FF002817
:104F5000D6D1002E01D0F307D2D50136D0E7AA462C
:104F60001F2C11D8013F0A21300000F037FC651CCE
:104F700030310CAB19550A21300000F02FFC092EFE
:104F80000ED906002C00EBE755461F2C0CD87B1ED3
:104F9000002F09D00CAA302111551F000134F4E76D
:104FA0002B0055461C00F0E71F2C03D80CAB2E221B
:104FB0001A5501341F2C10D80A21280000F0E6FBF6
:104FC000661C30310CAB19550A21280000F0DEFBBD
:104FD000051E01D03400EDE734000323229A13406C
:104FE000012B1CD01F2C06D84346002B32D00CAB13
:104FF0002D221A550134229B0393219B0293019485
:105000000CAB00934B465A4607990698FFF7E2FA15
:1050100015B0F0BCBB46B246A946A046F0BD219BE8
:10502000002B13D04346002B02D10C3313420FD078
:10503000219B013B2193190003E00CAB30221A5550
:1050400001348C42CED21F2CF7D9CBE72199F8E757
:105050002199F6E7229B5B0704D50CAB2B221A554E
:105060000134C8E7229B1B07C5D50CAB20221A557B
:105070000134C0E7FFFFEFFFFFFFEF7F65CDCD41BC
:1050800065CDCDC184A4041088A404107CA40410B0
:1050900078A4041070A604100000E03FF0B5DE46CE
:1050A00057464E464546E0B593B082468B469046FD
:1050B0001193002900D1EBE200275546119B187887
:1050C000002800D1E7E2252809D07C1C43463A009D
:1050D0005946A847119B013311932700EEE701338E
:1050E00011930024119A11780B00203BD8B210289C
:1050F00003D88300D048C3589F460B00303BDBB237
:10510000092B2CD92A292FD000230A93119B1A7816
:105110002E2A39D000239A46119A1378683BD9B2C7
:10512000122976D88B00C549CB589F4601231C43D2
:1051300001321192D6E702231C4301321192D1E7CA
:1051400004231C4301321192CCE708231C43013293
:105150001192C7E710231C4301321192C2E711A834
:10516000FFF726FA0A90D1E71C9B1A1D1C921868BB
:10517000002804DB0A90119B01331193C6E7022338
:105180001C4343420A93F6E78022D20014435A1C80
:1051900011925A781300303BDBB2092B04D92A2A2A
:1051A00007D000239A46B7E711A8FFF701FA824615
:1051B000B2E71C9B1A1D1C921868002804DB82466B
:1051C000119B01331193A7E70020F8E780235B00D0
:1051D0002343511C119152786C2A01D01C0018E015
:1051E000C0239B001C430131119112E08023234313
:1051F000511C11915278682A01D01C0009E0C0238B
:105200001C430131119104E080235B001C430132F7
:105210001192119B18780300253BDAB2532A00D96A
:105220002CE29300864AD3589F4680239B001C4360
:1052300001321192EDE780235B001C430132119291
:10524000E7E7782809D0582838D06F2838D0622866
:1052500038D010239C430A2600E01026582833D06B
:10526000692803D0642801D00C229443630501D53A
:105270000122944369282AD0642828D0A30500D5A8
:105280009FE0E30500D5B8E0630600D4CAE01C9AAD
:10529000111D1C911168FF220A4005940A9B04937A
:1052A00053460393029600230193009243463A002B
:1052B00059462800FFF76EFA070027E01026CDE7D1
:1052C0000826CBE70226C9E720221443C8E7A30536
:1052D00020D4E30550D4630666D51C9A111D1C9199
:1052E0001168FF220A40D317D118594005940A9B30
:1052F0000493534603930296D20F019200914346C2
:105300003A0059462800FFF745FA0700119B013380
:105310001193D3E61C9BDA1D07218A431100083143
:105320001C91116853689C46DB170C930D930C9AE3
:105330000D9B100048400E90624653400F930E980C
:105340000F990C9A0D9B801A99410E900F91089419
:105350000A9B0793534606930496002305936346DE
:10536000DA0F02920090019143463A005946280014
:10537000FFF76EFA0700C9E71C9A111D1C9112680D
:10538000D317D118594005940A9B049353460393AD
:105390000296D20F0192009143463A0059462800E6
:1053A000FFF7F8F90700B1E7230605D51C9A111D90
:1053B0001C910023D25E96E71C9A111D1C91126865
:1053C00091E71C9BDA1D07218A43110008311C91CB
:1053D00008940A9B0793534606930496002305936B
:1053E0000293136854680093019443463A00594667
:1053F0002800FFF72DFA070088E71C9A111D1C9161
:1054000005940A9B04935346039302960023019349
:105410001368009343463A0059462800FFF7BAF94B
:10542000070073E723060DD51C9A111D1C91126805
:105430001204120C31E7C04690A40410D4A4041046
:1054400020A504101C9A111D1C91126825E74628FE
:105450001AD01C9B0733072293431A0008321C9270
:1054600004940A9A0392524602925C681B68009365
:10547000019443463A0059462800FFF765FC0700AF
:10548000119B0133119319E620231C43E1E76728A0
:1054900001D0472802D180231B011C43452801D09D
:1054A000472801D120231C431C9B07330722934329
:1054B0001A0008321C9204940A9A039252460292ED
:1054C0005C681B680093019443463A0059462800E3
:1054D000FFF730FA0700119B01331193EEE5022329
:1054E0001A002240924623421FD001241C9B1A1D01
:1054F0001C927A1C9146187843463A005946A847B0
:105500005346002B16D1119B013311934F46D5E51D
:10551000561C434659462020B847230032005C1CE5
:105520009D42F5D83D001700E0E701233A002F0027
:105530000A9DF4E74A46A9460A9D06E0571C4346E1
:1055400059462020C84734003A00661CA542F5D8C9
:105550004D469146D7E71C9B1A1D1C921B68994625
:105560005346002B00D1013B4E4601E001361300AB
:105570003278002A02D05A1E002BF7D14B46F21A7D
:1055800010928023DB0026001E401C4203D05245AF
:1055900001D95346109302231A0022400B92234252
:1055A00005D03A0037004C46A946554620E03A005F
:1055B000109B5F46B3462E0006E0551C434639005B
:1055C0002020B04723002A005C1C0A999942F4D895
:1055D00035005E46BB46109437004C46A9465546FA
:1055E00006E01D000134561C43465946C8473200A8
:1055F0002078002804D0002FF4D06B1E002DF0D1AD
:1056000017004D460B9B002B03D1119B01331193C7
:1056100054E50A9F109B06E0561C4346594620203D
:10562000A847230032005C1C9F42F5D81700ECE726
:1056300021231C431C9B1A1D1C921B68009305947C
:1056400008230493534603931023029300230193EA
:1056500043463A0059462800FFF79CF80700119B83
:10566000013311932AE57C1C43463A005946252014
:10567000A847119B0133119327001FE57C1C43466B
:105680003A005946A847119B01331193270015E5AD
:105690000A4B9A4610E5AA46474502D343465A1E8E
:1056A00000E03A00434659460020D047380013B086
:1056B000F0BCBB46B246A946A046F0BDA1450010CD
:1056C0000EB410B585B0010007AC08CC03940122DC
:1056D000009452420348FFF7E1FC05B010BC08BC3F
:1056E00003B018479945001000B583B0009313002C
:1056F0000A0001000248FFF7D1FC03B000BDC0461C
:105700009945001000B585B00290039101210093E6
:1057100013004A4202A90248FFF7C0FC05B000BDD1
:10572000A345001001480421014B1847A012002096
:105730005557001010B5010018231B88142210883B
:10574000984710BD10B5010018231B881622108839
:10575000984710BDF0B5C64600B507000E000025FD
:105760000123984600E00135B5420AD2AC003C194D
:105770002068FFF7DFFF20600028F4D1002398465F
:10578000F1E7404680BCB846F0BD0000124A936F76
:105790009B0815D29066D166002905D0FFE7FFE788
:1057A000FFE7516F106F704704B580210906C217DB
:1057B0005140002800D0C84342F072F8002104BDD7
:1057C000F0B5146E556E576F166FFFF7E3FF146652
:1057D000556657671667F0BD000000D0114A936FF9
:1057E0009B0813D210665166002905D0FFE7FFE73A
:1057F000FFE7516F106F704704B5002801D00020FB
:10580000C04342F04DF8002104BDC046F0B5146E0F
:10581000556E576F166FFFF7E5FF146655665767AD
:105820001667F0BD000000D094464E4A926F920871
:10583000624601D230E0C046F0B54A4EB56F6D0801
:10584000FCD3346E756E776F366F00F025F8944692
:10585000444A14665566576716676246F0BDC046EF
:105860009446404A926F9208624601D258E0C04680
:10587000F0B53C4EB56F6D08FCD3346E756E776F26
:10588000366F00F04DF89446364A146655665767F1
:1058900016676246F0BDC046002B24DB11D00029FC
:1058A0003EDA00B5C943404200D1013100F038F87A
:1058B000C943404200D10131DB43524200D10133A0
:1058C00000BD002AEBD1002801D1002905D000201D
:1058D000C90FC90701D1C043410800B541F0B8FF65
:1058E0000022002300BD00B500290ADBDB43524241
:1058F00000D1013300F014F8C943404200D1013116
:1059000000BDC943404200D10131DB43524200D1C6
:10591000013300F005F8DB43524200D1013300BDF2
:10592000002923D1002B18D1002A0CD0BC460D4FE2
:1059300038667A6600210023FFE7FFE7FFE77A6F0A
:10594000386F67467047002801D00748010000B54E
:1059500041F07EFF0022002300BD02000B0000206A
:1059600000217047000000D0FFFFFFFF002B00D098
:10597000BDE0130C26D1002AE7D080B4104F396661
:105980007A66FFE7FFE730B4040C7B6F396F1B04C6
:1059900023433B66FFE7FFE7FFE7C04684B27B6F28
:1059A0003D6F1B0423433B66FFE7FFE7C046002330
:1059B0002C042D0C7A6F386F00196941B0BC704708
:1059C000000000D0F0B594460025140E01D112025B
:1059D0000835140F01D112010435940F01D1920042
:1059E0000235D40F01D152000135D40B0134254FBB
:1059F0007C66254C3C660E0C93B2FFE7FFE7FFE7A1
:105A00003C6F6643360C7703BE467343DF0B5B0483
:105A1000C01AB941130C7343DB18C91ACE08664388
:105A2000360CB64493B273431F0F1B01C01AB94121
:105A3000130C73431F0B1B05C01AB941860D8F024F
:105A40003E436643360C092D24DB520A7243801A0A
:105A50007703460A6643360C16235B1BDE40DF40A5
:105A6000BF1964466643821B704604350633010045
:105A7000D940A840C01900D30131A24206D2002368
:105A8000F0BD0000000000D0FFFFFFFF121B01303F
:105A9000F3D3F1E709277F1BFE406446A2B27243AD
:105AA000801A00D20139220C7243130C1204821A9C
:105AB00099410B007046043513370100F940A840A6
:105AC000801900D30131002B02D1A2420AD2F0BDCD
:105AD000013000D30131121BFAD2013BF8D1A242AE
